{
  "_format": "hh-sol-artifact-1",
  "contractName": "RentalAgreement",
  "sourceName": "contracts/RentalAgreement.sol",
  "abi": [
    {
      "inputs": [
        {
          "internalType": "address",
          "name": "_propertyListingAddress",
          "type": "address"
        },
        {
          "internalType": "address",
          "name": "_escrowAddressInitial",
          "type": "address"
        }
      ],
      "stateMutability": "nonpayable",
      "type": "constructor"
    },
    {
      "anonymous": false,
      "inputs": [
        {
          "indexed": true,
          "internalType": "uint256",
          "name": "rentalId",
          "type": "uint256"
        },
        {
          "indexed": true,
          "internalType": "address",
          "name": "tenant",
          "type": "address"
        }
      ],
      "name": "DepositReleaseRequested",
      "type": "event"
    },
    {
      "anonymous": false,
      "inputs": [
        {
          "indexed": true,
          "internalType": "uint256",
          "name": "rentalId",
          "type": "uint256"
        },
        {
          "indexed": true,
          "internalType": "address",
          "name": "landlord",
          "type": "address"
        }
      ],
      "name": "LandlordApprovedDepositRelease",
      "type": "event"
    },
    {
      "anonymous": false,
      "inputs": [
        {
          "indexed": true,
          "internalType": "uint256",
          "name": "rentalId",
          "type": "uint256"
        },
        {
          "indexed": true,
          "internalType": "uint256",
          "name": "propertyId",
          "type": "uint256"
        },
        {
          "indexed": true,
          "internalType": "address",
          "name": "tenant",
          "type": "address"
        },
        {
          "indexed": false,
          "internalType": "address",
          "name": "landlord",
          "type": "address"
        },
        {
          "indexed": false,
          "internalType": "uint256",
          "name": "endDate",
          "type": "uint256"
        },
        {
          "indexed": false,
          "internalType": "uint256",
          "name": "monthlyRentAmount",
          "type": "uint256"
        },
        {
          "indexed": false,
          "internalType": "uint256",
          "name": "securityDepositAmount",
          "type": "uint256"
        }
      ],
      "name": "PropertyRented",
      "type": "event"
    },
    {
      "anonymous": false,
      "inputs": [
        {
          "indexed": true,
          "internalType": "uint256",
          "name": "rentalId",
          "type": "uint256"
        },
        {
          "indexed": false,
          "internalType": "uint256",
          "name": "paidUntil",
          "type": "uint256"
        },
        {
          "indexed": false,
          "internalType": "uint256",
          "name": "amount",
          "type": "uint256"
        }
      ],
      "name": "RentPaid",
      "type": "event"
    },
    {
      "anonymous": false,
      "inputs": [
        {
          "indexed": true,
          "internalType": "uint256",
          "name": "rentalId",
          "type": "uint256"
        },
        {
          "indexed": true,
          "internalType": "address",
          "name": "landlord",
          "type": "address"
        }
      ],
      "name": "RentWithdrawalRequested",
      "type": "event"
    },
    {
      "anonymous": false,
      "inputs": [
        {
          "indexed": true,
          "internalType": "uint256",
          "name": "rentalId",
          "type": "uint256"
        },
        {
          "indexed": false,
          "internalType": "uint256",
          "name": "propertyId",
          "type": "uint256"
        }
      ],
      "name": "RentalEnded",
      "type": "event"
    },
    {
      "inputs": [
        {
          "internalType": "uint256",
          "name": "",
          "type": "uint256"
        }
      ],
      "name": "activeRentalIdForProperty",
      "outputs": [
        {
          "internalType": "uint256",
          "name": "",
          "type": "uint256"
        }
      ],
      "stateMutability": "view",
      "type": "function"
    },
    {
      "inputs": [
        {
          "internalType": "uint256",
          "name": "_rentalId",
          "type": "uint256"
        }
      ],
      "name": "approveDepositRelease",
      "outputs": [],
      "stateMutability": "nonpayable",
      "type": "function"
    },
    {
      "inputs": [],
      "name": "escrowContract",
      "outputs": [
        {
          "internalType": "contract Escrow",
          "name": "",
          "type": "address"
        }
      ],
      "stateMutability": "view",
      "type": "function"
    },
    {
      "inputs": [
        {
          "internalType": "uint256",
          "name": "_propertyId",
          "type": "uint256"
        }
      ],
      "name": "getActiveRentalIdForProperty",
      "outputs": [
        {
          "internalType": "uint256",
          "name": "",
          "type": "uint256"
        }
      ],
      "stateMutability": "view",
      "type": "function"
    },
    {
      "inputs": [
        {
          "internalType": "address",
          "name": "_landlord",
          "type": "address"
        }
      ],
      "name": "getLandlordRentals",
      "outputs": [
        {
          "internalType": "uint256[]",
          "name": "",
          "type": "uint256[]"
        }
      ],
      "stateMutability": "view",
      "type": "function"
    },
    {
      "inputs": [
        {
          "internalType": "uint256",
          "name": "_rentalId",
          "type": "uint256"
        }
      ],
      "name": "getRentalDetails",
      "outputs": [
        {
          "components": [
            {
              "internalType": "uint256",
              "name": "rentalId",
              "type": "uint256"
            },
            {
              "internalType": "uint256",
              "name": "propertyId",
              "type": "uint256"
            },
            {
              "internalType": "address",
              "name": "tenant",
              "type": "address"
            },
            {
              "internalType": "address",
              "name": "landlord",
              "type": "address"
            },
            {
              "internalType": "uint256",
              "name": "startDate",
              "type": "uint256"
            },
            {
              "internalType": "uint256",
              "name": "endDate",
              "type": "uint256"
            },
            {
              "internalType": "uint256",
              "name": "monthlyRentAmount",
              "type": "uint256"
            },
            {
              "internalType": "uint256",
              "name": "securityDepositAmount",
              "type": "uint256"
            },
            {
              "internalType": "uint256",
              "name": "rentPaidUntil",
              "type": "uint256"
            },
            {
              "internalType": "enum RentalAgreement.RentalStatus",
              "name": "status",
              "type": "uint8"
            },
            {
              "internalType": "bool",
              "name": "landlordApprovedDepositRelease",
              "type": "bool"
            }
          ],
          "internalType": "struct RentalAgreement.Rental",
          "name": "",
          "type": "tuple"
        }
      ],
      "stateMutability": "view",
      "type": "function"
    },
    {
      "inputs": [
        {
          "internalType": "address",
          "name": "_tenant",
          "type": "address"
        }
      ],
      "name": "getTenantRentals",
      "outputs": [
        {
          "internalType": "uint256[]",
          "name": "",
          "type": "uint256[]"
        }
      ],
      "stateMutability": "view",
      "type": "function"
    },
    {
      "inputs": [
        {
          "internalType": "uint256",
          "name": "_rentalId",
          "type": "uint256"
        }
      ],
      "name": "payRent",
      "outputs": [],
      "stateMutability": "payable",
      "type": "function"
    },
    {
      "inputs": [],
      "name": "propertyListingContract",
      "outputs": [
        {
          "internalType": "contract PropertyListing",
          "name": "",
          "type": "address"
        }
      ],
      "stateMutability": "view",
      "type": "function"
    },
    {
      "inputs": [
        {
          "internalType": "uint256",
          "name": "_propertyId",
          "type": "uint256"
        }
      ],
      "name": "rentProperty",
      "outputs": [],
      "stateMutability": "payable",
      "type": "function"
    },
    {
      "inputs": [
        {
          "internalType": "uint256",
          "name": "",
          "type": "uint256"
        }
      ],
      "name": "rentals",
      "outputs": [
        {
          "internalType": "uint256",
          "name": "rentalId",
          "type": "uint256"
        },
        {
          "internalType": "uint256",
          "name": "propertyId",
          "type": "uint256"
        },
        {
          "internalType": "address",
          "name": "tenant",
          "type": "address"
        },
        {
          "internalType": "address",
          "name": "landlord",
          "type": "address"
        },
        {
          "internalType": "uint256",
          "name": "startDate",
          "type": "uint256"
        },
        {
          "internalType": "uint256",
          "name": "endDate",
          "type": "uint256"
        },
        {
          "internalType": "uint256",
          "name": "monthlyRentAmount",
          "type": "uint256"
        },
        {
          "internalType": "uint256",
          "name": "securityDepositAmount",
          "type": "uint256"
        },
        {
          "internalType": "uint256",
          "name": "rentPaidUntil",
          "type": "uint256"
        },
        {
          "internalType": "enum RentalAgreement.RentalStatus",
          "name": "status",
          "type": "uint8"
        },
        {
          "internalType": "bool",
          "name": "landlordApprovedDepositRelease",
          "type": "bool"
        }
      ],
      "stateMutability": "view",
      "type": "function"
    },
    {
      "inputs": [
        {
          "internalType": "address",
          "name": "",
          "type": "address"
        },
        {
          "internalType": "uint256",
          "name": "",
          "type": "uint256"
        }
      ],
      "name": "rentalsByLandlord",
      "outputs": [
        {
          "internalType": "uint256",
          "name": "",
          "type": "uint256"
        }
      ],
      "stateMutability": "view",
      "type": "function"
    },
    {
      "inputs": [
        {
          "internalType": "address",
          "name": "",
          "type": "address"
        },
        {
          "internalType": "uint256",
          "name": "",
          "type": "uint256"
        }
      ],
      "name": "rentalsByTenant",
      "outputs": [
        {
          "internalType": "uint256",
          "name": "",
          "type": "uint256"
        }
      ],
      "stateMutability": "view",
      "type": "function"
    },
    {
      "inputs": [
        {
          "internalType": "uint256",
          "name": "_rentalId",
          "type": "uint256"
        }
      ],
      "name": "requestDepositRelease",
      "outputs": [],
      "stateMutability": "nonpayable",
      "type": "function"
    },
    {
      "inputs": [
        {
          "internalType": "address",
          "name": "_newEscrowAddress",
          "type": "address"
        }
      ],
      "name": "setEscrowContract",
      "outputs": [],
      "stateMutability": "nonpayable",
      "type": "function"
    },
    {
      "inputs": [
        {
          "internalType": "uint256",
          "name": "_rentalId",
          "type": "uint256"
        }
      ],
      "name": "withdrawRent",
      "outputs": [],
      "stateMutability": "nonpayable",
      "type": "function"
    }
  ],
  "bytecode": "0x60803461010957601f611a0138819003918201601f19168301916001600160401b0383118484101761010e57808492604094855283398101031261010957610052602061004b83610124565b9201610124565b6001600055906001600160a01b031680156100c457600280546001600160a01b0319908116929092179055600480549091166001600160a01b03929092169182179055806100aa575b6040516118c890816101398239f35b600380546001600160a01b0319169190911790553861009b565b60405162461bcd60e51b815260206004820152601360248201527f52413a205a65726f20504c2061646472657373000000000000000000000000006044820152606490fd5b600080fd5b634e487b7160e01b600052604160045260246000fd5b51906001600160a01b03821682036101095756fe608080604052600436101561001357600080fd5b600090813560e01c90816302fb6290146115425750806317088b34146113485780631b0779a6146112d6578063341afdd2146112ad5780634f7d427c1461109957806353b126dc14610f3e57806392c1835614610ef65780639d36ab6c14610857578063af94a1d1146107a0578063c463956f14610749578063cfc78a1214610509578063d9e8843f1461029e578063db8011ef1461021c578063e42a96e7146101f3578063e59ec132146101c95763f42375b5146100d157600080fd5b346101c65760203660031901126101c6576001600160a01b036100f261158c565b168015610181576004546001600160a01b03811661013c5781906bffffffffffffffffffffffff60a01b16176004556bffffffffffffffffffffffff60a01b600354161760035580f35b60405162461bcd60e51b815260206004820152601e60248201527f52413a20457363726f77206164647265737320616c72656164792073657400006044820152606490fd5b60405162461bcd60e51b815260206004820152601760248201527f52413a205a65726f20457363726f7720616464726573730000000000000000006044820152606490fd5b80fd5b50346101c65760203660031901126101c65760406020916004358152600683522054604051908152f35b50346101c657806003193601126101c6576003546040516001600160a01b039091168152602090f35b50346101c65760203660031901126101c6576001600160a01b0361023e61158c565b168152600760205260408120604051918260208354918281520192825260208220915b818110610288576102848561027881870382611642565b604051918291826115a7565b0390f35b8254845260209093019260019283019201610261565b5060203660031901126101c6576004356102b661183c565b80825260056020526102d860018060a01b0360026040852001541633146116fc565b808252600560205260ff60096040842001541660058110156104f5576001036104b857600454610312906001600160a01b031615156116b0565b808252600560205260408220600881018054909162093a7f1982018281116104a457421061045f5760060154340361041a5762278d00810180911161040657815560035483906001600160a01b0316803b156104025781608491604051928380926315d0eb9960e01b825288600483015234602483015284604483015233606483015234905af180156103f7576103de575b505060407fa62c35dfc0ff11d3713608ebcdc5c5d1952c7702620f2c46c22950f7b70d579791548151908152346020820152a26001815580f35b816103e891611642565b6103f35782386103a4565b8280fd5b6040513d84823e3d90fd5b5080fd5b634e487b7160e01b84526011600452602484fd5b60405162461bcd60e51b815260206004820152601960248201527f52413a20496e636f72726563742072656e7420616d6f756e74000000000000006044820152606490fd5b60405162461bcd60e51b815260206004820152601e60248201527f52413a20546f6f206561726c7920746f20706179206e6578742072656e7400006044820152606490fd5b634e487b7160e01b86526011600452602486fd5b60405162461bcd60e51b815260206004820152601560248201527452413a2052656e74616c206e6f742061637469766560581b6044820152606490fd5b634e487b7160e01b83526021600452602483fd5b50346101c65760203660031901126101c65760043561052661183c565b808252600560205261054860018060a01b036003604085200154163314611664565b60045461055f906001600160a01b031615156116b0565b808252600560205260ff60096040842001541660058110156104f5576001148015610724575b156106df5760035460405163380c023960e21b8152600481018390526001600160a01b0390911690602081602481855afa9081156106d457849161069e575b50801561064f5783926040519233827f1cf381915ade9bfc9e2ceed3bdd4fd8bdde53f9b7cd737c2910ed78e95f92b6b8780a3803b1561064b578385606492819583956379e263a960e01b8552600485015233602485015260448401525af180156103f757610636575b506001905580f35b8161064091611642565b6101c657803861062e565b8480fd5b60405162461bcd60e51b815260206004820152602160248201527f52413a204e6f2072656e7420617661696c61626c6520746f20776974686472616044820152607760f81b6064820152608490fd5b90506020813d6020116106cc575b816106b960209383611642565b810103126106c85751386105c4565b8380fd5b3d91506106ac565b6040513d86823e3d90fd5b60405162461bcd60e51b815260206004820152601e60248201527f52413a2052656e74616c206e6f7420616374697665206f7220656e64656400006044820152606490fd5b50808252600560205260ff60096040842001541660058110156104f557600214610585565b50346101c65760403660031901126101c65761076361158c565b6001600160a01b03168152600760205260408120805460243592908310156101c657602061079184846115e1565b90549060031b1c604051908152f35b50346101c65760203660031901126101c657604061016091600435815260056020522060ff81549160018101549060018060a01b0360028201541660018060a01b03600383015416600483015460058401549060068501549260078601549460096008880154970154976040519a8b5260208b015260408a01526060890152608088015260a087015260c086015260e08501526101008401526108496101208401838316611569565b60081c161515610140820152f35b5060203660031901126101c657602460043561087161183c565b600454610888906001600160a01b031615156116b0565b6002546040516332665ffb60e01b81526004810183905292849184919082906001600160a01b03165afa918215610bc0578392610d6b575b5061016082015115610d265761018082015115610ce1576101008201514210610c9c57602082019160018060a01b038351163314610c4c57606081015160808201519061090d82826117df565b94853403610c075760ff6101206001805401958660015501511662278d0081029080820462278d001490151715610bf35761094890426117df565b9562278d004201804211610bdf578860098860019388888d8c888060a01b038b5116604051966109778861160f565b8288526020808901918252336040808b0191825260608b019485524260808c0190815260a08c0197885260c08c0198895260e08c01998a526101008c019a8b526101208c019e8f526101408c018e8152968e526005938490529c2099518a55915160018a015590516002890180546001600160a01b03199081166001600160a01b0393841617909155925160038a01805490941691161790915597516004870155905185880155905160068501559051600784015590516008830155935191019291811015610bcb578254915161ffff1990921660ff9091161790151560081b61ff0016179055858852600660209081526040808a20879055338a5260079091528820889190610a88908790611802565b82516001600160a01b03168252600860205260408220610aa9908790611802565b6002546001600160a01b0316803b156103f35782809160646040518094819363e84394a160e01b83528d60048401523360248401528c60448401525af1908115610bc0578391610bab575b50506003546001600160a01b0316803b156103f35782906084604051809481936315d0eb9960e01b83528b60048401528960248401528a60448401523360648401525af180156103f757610b92575b505060018060a01b03905116946040519586526020860152604085015260608401527fe880304ea75d672c9f3cd5ea3967c48ffc5b7886af72aafa447080bda19dae3860803394a46001815580f35b81610b9c91611642565b610ba7578638610b43565b8680fd5b81610bb591611642565b610402578138610af4565b6040513d85823e3d90fd5b634e487b7160e01b8b52602160045260248bfd5b634e487b7160e01b89526011600452602489fd5b634e487b7160e01b88526011600452602488fd5b60405162461bcd60e51b815260206004820152601c60248201527f52413a20496e636f7272656374207061796d656e7420616d6f756e74000000006044820152606490fd5b60405162461bcd60e51b815260206004820152602260248201527f52413a204f776e65722063616e6e6f742072656e74206f776e2070726f706572604482015261747960f01b6064820152608490fd5b60405162461bcd60e51b815260206004820152601e60248201527f52413a2050726f7065727479206e6f742079657420617661696c61626c6500006044820152606490fd5b60405162461bcd60e51b815260206004820152601a60248201527f52413a2050726f7065727479206e6f7420617661696c61626c650000000000006044820152606490fd5b60405162461bcd60e51b815260206004820152601760248201527f52413a2050726f7065727479206e6f74206c69737465640000000000000000006044820152606490fd5b9091503d8084833e610d7d8183611642565b8101906020818303126106c85780519067ffffffffffffffff821161064b5701906101e0828203126106c857604051916101e0830183811067ffffffffffffffff821117610ee25760405280518352610dd860208201611740565b6020840152604081015167ffffffffffffffff8111610ede5782610dfd918301611754565b60408401526060810151606084015260808101516080840152610e2260a082016117c4565b60a0840152610e3360c082016117c4565b60c084015260e081015161ffff81168103610ede5760e0840152610100810151610100840152610e6661012082016117c4565b61012084015261014081015167ffffffffffffffff8111610ede576101c092610e90918301611754565b610140840152610ea361016082016117d2565b610160840152610eb661018082016117d2565b610180840152610ec96101a08201611740565b6101a084015201516101c082015290386108c0565b8580fd5b634e487b7160e01b86526041600452602486fd5b50346101c65760403660031901126101c657610f1061158c565b6001600160a01b03168152600860205260408120805460243592908310156101c657602061079184846115e1565b50346101c65760203660031901126101c657600435610f5b61183c565b8082526005602052610f7d60018060a01b0360026040852001541633146116fc565b808252600560205260408220600981019060ff8254166005811015611085576001811490811561107a575b501561103557600501544210610ff057805460ff1916600317905533907fa987d30c1f3640125d45604c7b1ff4e957d2a1063f09164596e65111c649ef768380a36001815580f35b60405162461bcd60e51b815260206004820152601f60248201527f52413a2052656e74616c20706572696f64206e6f742079657420656e646564006044820152606490fd5b60405162461bcd60e51b815260206004820152601b60248201527f52413a2052656e74616c206e6f74206163746976652f656e64656400000000006044820152606490fd5b600291501438610fa8565b634e487b7160e01b85526021600452602485fd5b50346101c65760203660031901126101c6576004356110b661183c565b80825260056020526110d860018060a01b036003604085200154163314611664565b6004546110ef906001600160a01b031615156116b0565b80825260056020526040822060098101805460ff81166005811015611299576003036112405761ffff191661010217905560405133837f481daeccdab31bfcea6c9bac6e3ebcc534fd237f9fc99c7f8fce0a008c535fc08680a3600354600283015485916001600160a01b039081169116813b156103f3578383819360449363f0f6e86d60e01b845289600485015260248401525af180156106d45761122c575b50826001808060a01b03600254169201918254813b156103f3578291602483926040519485938492632a15816960e01b845260048401525af180156103f757611217575b50506020817fe1f3808c98fd22420231b718eec61ff973b07eb979b8ef9468c59bfac3214bd9925485526006825284604081205554604051908152a26001815580f35b8161122191611642565b6103f35782386111d4565b8361123991949294611642565b9138611190565b60405162461bcd60e51b815260206004820152602b60248201527f52413a204465706f7369742072656c65617365206e6f7420726571756573746560448201526a1908189e481d195b985b9d60aa1b6064820152608490fd5b634e487b7160e01b86526021600452602486fd5b50346101c657806003193601126101c6576002546040516001600160a01b039091168152602090f35b50346101c65760203660031901126101c6576001600160a01b036112f861158c565b168152600860205260408120604051918260208354918281520192825260208220915b818110611332576102848561027881870382611642565b825484526020909301926001928301920161131b565b50346101c65760203660031901126101c6576004358161014060405161136d8161160f565b8281528260208201528260408201528260608201528260808201528260a08201528260c08201528260e08201528261010082015282610120820152015280825260056020526040822054156114fd578152600560205260408120604051906113d48261160f565b805482526001810154906020830191825260018060a01b036002820154166040840190815260018060a01b036003830154166060850190815260048301546080860190815260058401549060a0870191825260068501549260c0880193845260078601549460e0890195865260096008880154976101008b0198895201549760ff89166101208b019b60058210156114e957508b5260089890981c60ff1615156101408a01908152604080519a518b52985160208b015290516001600160a01b03908116988a0198909852905190961660608801525160808701525160a08601525160c08501525160e084015251610100830152915161016092906114de90610120840190611569565b511515610140820152f35b634e487b7160e01b81526021600452602490fd5b60405162461bcd60e51b815260206004820152601960248201527f52413a2052656e74616c20646f6573206e6f74206578697374000000000000006044820152606490fd5b90503461040257602036600319011261040257604060209260043581526006845220548152f35b9060058210156115765752565b634e487b7160e01b600052602160045260246000fd5b600435906001600160a01b03821682036115a257565b600080fd5b602060408183019282815284518094520192019060005b8181106115cb5750505090565b82518452602093840193909201916001016115be565b80548210156115f95760005260206000200190600090565b634e487b7160e01b600052603260045260246000fd5b610160810190811067ffffffffffffffff82111761162c57604052565b634e487b7160e01b600052604160045260246000fd5b90601f8019910116810190811067ffffffffffffffff82111761162c57604052565b1561166b57565b60405162461bcd60e51b815260206004820152601760248201527f52413a2043616c6c6572206e6f74206c616e646c6f72640000000000000000006044820152606490fd5b156116b757565b60405162461bcd60e51b815260206004820152601b60248201527f52413a20457363726f7720636f6e7472616374206e6f742073657400000000006044820152606490fd5b1561170357565b60405162461bcd60e51b815260206004820152601560248201527414904e8810d85b1b195c881b9bdd081d195b985b9d605a1b6044820152606490fd5b51906001600160a01b03821682036115a257565b81601f820112156115a25780519067ffffffffffffffff821161162c5760405192611789601f8401601f191660200185611642565b828452602083830101116115a25760005b8281106117af57505060206000918301015290565b8060208092840101518282870101520161179a565b519060ff821682036115a257565b519081151582036115a257565b919082018092116117ec57565b634e487b7160e01b600052601160045260246000fd5b80546801000000000000000081101561162c57611824916001820181556115e1565b819291549060031b91821b91600019901b1916179055565b60026000541461184d576002600055565b60405162461bcd60e51b815260206004820152601f60248201527f5265656e7472616e637947756172643a207265656e7472616e742063616c6c006044820152606490fdfea264697066735822122013c5bbd9ffb317bed83bc345272422f11e113854b51ec59fffb201363be4c39f64736f6c634300081c0033",
  "linkReferences": {},
  "deployedLinkReferences": {}
}